{
  "contractName": "Verification",
  "abi": [
    {
      "inputs": [
        {
          "internalType": "bytes32",
          "name": "hash",
          "type": "bytes32"
        },
        {
          "internalType": "bytes",
          "name": "signature",
          "type": "bytes"
        }
      ],
      "name": "recover",
      "outputs": [
        {
          "internalType": "address",
          "name": "",
          "type": "address"
        }
      ],
      "stateMutability": "pure",
      "type": "function"
    }
  ],
  "bytecode": "0x608060405234801561001057600080fd5b50610463806100206000396000f3fe608060405234801561001057600080fd5b506004361061002b5760003560e01c806319045a2514610030575b600080fd5b61004a600480360381019061004591906101b0565b610060565b6040516100579190610231565b60405180910390f35b600080600080604185511461007b576000935050505061012d565b6020850151925060408501519150606085015160001a9050601b8160ff1610156100af57601b816100ac91906102e7565b90505b601b8160ff16141580156100c75750601c8160ff1614155b156100d8576000935050505061012d565b600186828585604051600081526020016040526040516100fb949392919061024c565b6020604051602081039080840390855afa15801561011d573d6000803e3d6000fd5b5050506020604051035193505050505b92915050565b6000610146610141846102b6565b610291565b90508281526020810184848401111561015e57600080fd5b610169848285610367565b509392505050565b60008135905061018081610416565b92915050565b600082601f83011261019757600080fd5b81356101a7848260208601610133565b91505092915050565b600080604083850312156101c357600080fd5b60006101d185828601610171565b925050602083013567ffffffffffffffff8111156101ee57600080fd5b6101fa85828601610186565b9150509250929050565b61020d8161031e565b82525050565b61021c81610330565b82525050565b61022b8161035a565b82525050565b60006020820190506102466000830184610204565b92915050565b60006080820190506102616000830187610213565b61026e6020830186610222565b61027b6040830185610213565b6102886060830184610213565b95945050505050565b600061029b6102ac565b90506102a78282610376565b919050565b6000604051905090565b600067ffffffffffffffff8211156102d1576102d06103d6565b5b6102da82610405565b9050602081019050919050565b60006102f28261035a565b91506102fd8361035a565b92508260ff03821115610313576103126103a7565b5b828201905092915050565b60006103298261033a565b9050919050565b6000819050919050565b600073ffffffffffffffffffffffffffffffffffffffff82169050919050565b600060ff82169050919050565b82818337600083830152505050565b61037f82610405565b810181811067ffffffffffffffff8211171561039e5761039d6103d6565b5b80604052505050565b7f4e487b7100000000000000000000000000000000000000000000000000000000600052601160045260246000fd5b7f4e487b7100000000000000000000000000000000000000000000000000000000600052604160045260246000fd5b6000601f19601f8301169050919050565b61041f81610330565b811461042a57600080fd5b5056fea26469706673582212201b0a969cee3ec32cf59758ce204d7f530930b9afe5da9288f0c529e77ad44d4e64736f6c63430008010033",
  "immutableReferences": {},
  "source": "pragma solidity >=0.5.0;\n\n/* Based upon ECDSA library from OpenZeppelin Solidity\n * https://github.com/OpenZeppelin/openzeppelin-solidity/blob/master/contracts/cryptography/ECDSA.sol\n */\n\ncontract Verification {\n\n  /* @dev Recover signer address from a message by using their signature\n   * @param hash bytes32 message, the hash is the signed message. What is recovered is the signer address.\n   * @param signature bytes signature, the signature is generated using web3.eth.sign()\n   */\n  function recover(bytes32 hash, bytes memory signature)\n    public\n    pure\n    returns (address)\n  {\n    bytes32 r;\n    bytes32 s;\n    uint8 v;\n\n    // Check the signature length\n    if (signature.length != 65) {\n      return (address(0));\n    }\n\n    // Divide the signature in r, s and v variables\n    // ecrecover takes the signature parameters, and the only way to get them\n    // currently is to use assembly.\n    // solium-disable-next-line security/no-inline-assembly\n    assembly {\n      r := mload(add(signature, 0x20))\n      s := mload(add(signature, 0x40))\n      v := byte(0, mload(add(signature, 0x60)))\n    }\n\n    // Version of signature should be 27 or 28, but 0 and 1 are also possible versions\n    if (v < 27) {\n      v += 27;\n    }\n\n    // If the version is correct return the signer address\n    if (v != 27 && v != 28) {\n      return (address(0));\n    } else {\n      // solium-disable-next-line arg-overflow\n      return ecrecover(hash, v, r, s);\n    }\n  }\n}",
  "sourcePath": "/home/kc/Documents/code/dvki/src/contracts/verification.sol",
  "compiler": {
    "name": "solc",
    "version": "0.8.1+commit.df193b15.Emscripten.clang"
  },
  "schemaVersion": "3.4.12",
  "updatedAt": "2023-02-18T03:05:44.404Z",
  "devdoc": {
    "kind": "dev",
    "methods": {},
    "version": 1
  },
  "userdoc": {
    "kind": "user",
    "methods": {},
    "version": 1
  }
}