{
  "contractName": "certisecure",
  "abi": [
    {
      "anonymous": false,
      "inputs": [
        {
          "indexed": false,
          "internalType": "string",
          "name": "uid",
          "type": "string"
        }
      ],
      "name": "generatedCertificate",
      "type": "event"
    },
    {
      "inputs": [],
      "name": "cCount",
      "outputs": [
        {
          "internalType": "uint256",
          "name": "",
          "type": "uint256"
        }
      ],
      "stateMutability": "view",
      "type": "function"
    },
    {
      "inputs": [
        {
          "internalType": "uint256",
          "name": "",
          "type": "uint256"
        }
      ],
      "name": "certificates",
      "outputs": [
        {
          "internalType": "uint256",
          "name": "id",
          "type": "uint256"
        },
        {
          "internalType": "string",
          "name": "uid",
          "type": "string"
        },
        {
          "internalType": "string",
          "name": "url",
          "type": "string"
        },
        {
          "internalType": "address",
          "name": "issuer",
          "type": "address"
        },
        {
          "internalType": "address",
          "name": "recipient",
          "type": "address"
        },
        {
          "internalType": "bool",
          "name": "isValid",
          "type": "bool"
        },
        {
          "internalType": "string",
          "name": "desc",
          "type": "string"
        }
      ],
      "stateMutability": "view",
      "type": "function"
    },
    {
      "inputs": [],
      "name": "uCount",
      "outputs": [
        {
          "internalType": "uint256",
          "name": "",
          "type": "uint256"
        }
      ],
      "stateMutability": "view",
      "type": "function"
    },
    {
      "inputs": [
        {
          "internalType": "uint256",
          "name": "",
          "type": "uint256"
        }
      ],
      "name": "users",
      "outputs": [
        {
          "internalType": "uint256",
          "name": "id",
          "type": "uint256"
        },
        {
          "internalType": "address",
          "name": "userAddress",
          "type": "address"
        },
        {
          "internalType": "string",
          "name": "name",
          "type": "string"
        },
        {
          "internalType": "string",
          "name": "userType",
          "type": "string"
        }
      ],
      "stateMutability": "view",
      "type": "function"
    },
    {
      "inputs": [
        {
          "internalType": "string",
          "name": "_name",
          "type": "string"
        },
        {
          "internalType": "string",
          "name": "_type",
          "type": "string"
        }
      ],
      "name": "createUser",
      "outputs": [],
      "stateMutability": "nonpayable",
      "type": "function"
    },
    {
      "inputs": [
        {
          "internalType": "string",
          "name": "_url",
          "type": "string"
        },
        {
          "internalType": "address",
          "name": "_recipient",
          "type": "address"
        },
        {
          "internalType": "string",
          "name": "_desc",
          "type": "string"
        }
      ],
      "name": "issueCertificate",
      "outputs": [],
      "stateMutability": "nonpayable",
      "type": "function"
    },
    {
      "inputs": [
        {
          "internalType": "uint256",
          "name": "_id",
          "type": "uint256"
        }
      ],
      "name": "revokeCertificate",
      "outputs": [],
      "stateMutability": "nonpayable",
      "type": "function"
    },
    {
      "inputs": [
        {
          "internalType": "string",
          "name": "_uid",
          "type": "string"
        }
      ],
      "name": "verifyCertificate",
      "outputs": [
        {
          "internalType": "bool",
          "name": "",
          "type": "bool"
        },
        {
          "internalType": "uint256",
          "name": "",
          "type": "uint256"
        }
      ],
      "stateMutability": "view",
      "type": "function"
    }
  ],
  "bytecode": "0x608060405234801561001057600080fd5b50611533806100206000396000f3fe608060405234801561001057600080fd5b50600436106100885760003560e01c806371b215721161005b57806371b21572146101305780637bc8924b1461014c57806387b162b51461016a5780638b23d8751461018657610088565b806306f5497e1461008d578063159dc18c146100a9578063365b98b2146100c7578063663b3e22146100fa575b600080fd5b6100a760048036038101906100a29190610fbf565b6101b7565b005b6100b16105d7565b6040516100be9190611177565b60405180910390f35b6100e160048036038101906100dc9190610fbf565b6105dd565b6040516100f19493929190611192565b60405180910390f35b610114600480360381019061010f9190610fbf565b61073d565b60405161012797969594939291906111e5565b60405180910390f35b61014a60048036038101906101459190610ed4565b610964565b005b610154610b9a565b6040516101619190611177565b60405180910390f35b610184600480360381019061017f9190610f53565b610ba0565b005b6101a0600480360381019061019b9190610e93565b610c96565b6040516101ae92919061112c565b60405180910390f35b6000600360008381526020019081526020016000206040518060e0016040529081600082015481526020016001820180546101f190611385565b80601f016020809104026020016040519081016040528092919081815260200182805461021d90611385565b801561026a5780601f1061023f5761010080835404028352916020019161026a565b820191906000526020600020905b81548152906001019060200180831161024d57829003601f168201915b5050505050815260200160028201805461028390611385565b80601f01602080910402602001604051908101604052809291908181526020018280546102af90611385565b80156102fc5780601f106102d1576101008083540402835291602001916102fc565b820191906000526020600020905b8154815290600101906020018083116102df57829003601f168201915b505050505081526020016003820160009054906101000a900473ffffffffffffffffffffffffffffffffffffffff1673ffffffffffffffffffffffffffffffffffffffff1673ffffffffffffffffffffffffffffffffffffffff1681526020016004820160009054906101000a900473ffffffffffffffffffffffffffffffffffffffff1673ffffffffffffffffffffffffffffffffffffffff1673ffffffffffffffffffffffffffffffffffffffff1681526020016004820160149054906101000a900460ff161515151581526020016005820180546103dc90611385565b80601f016020809104026020016040519081016040528092919081815260200182805461040890611385565b80156104555780601f1061042a57610100808354040283529160200191610455565b820191906000526020600020905b81548152906001019060200180831161043857829003601f168201915b50505050508152505090503373ffffffffffffffffffffffffffffffffffffffff16816060015173ffffffffffffffffffffffffffffffffffffffff161461049c57600080fd5b60008160a001901515908115158152505080600360008481526020019081526020016000206000820151816000015560208201518160010190805190602001906104e7929190610d5e565b506040820151816002019080519060200190610504929190610d5e565b5060608201518160030160006101000a81548173ffffffffffffffffffffffffffffffffffffffff021916908373ffffffffffffffffffffffffffffffffffffffff16021790555060808201518160040160006101000a81548173ffffffffffffffffffffffffffffffffffffffff021916908373ffffffffffffffffffffffffffffffffffffffff16021790555060a08201518160040160146101000a81548160ff02191690831515021790555060c08201518160050190805190602001906105cf929190610d5e565b509050505050565b60015481565b60026020528060005260406000206000915090508060000154908060010160009054906101000a900473ffffffffffffffffffffffffffffffffffffffff169080600201805461062c90611385565b80601f016020809104026020016040519081016040528092919081815260200182805461065890611385565b80156106a55780601f1061067a576101008083540402835291602001916106a5565b820191906000526020600020905b81548152906001019060200180831161068857829003601f168201915b5050505050908060030180546106ba90611385565b80601f01602080910402602001604051908101604052809291908181526020018280546106e690611385565b80156107335780601f1061070857610100808354040283529160200191610733565b820191906000526020600020905b81548152906001019060200180831161071657829003601f168201915b5050505050905084565b600360205280600052604060002060009150905080600001549080600101805461076690611385565b80601f016020809104026020016040519081016040528092919081815260200182805461079290611385565b80156107df5780601f106107b4576101008083540402835291602001916107df565b820191906000526020600020905b8154815290600101906020018083116107c257829003601f168201915b5050505050908060020180546107f490611385565b80601f016020809104026020016040519081016040528092919081815260200182805461082090611385565b801561086d5780601f106108425761010080835404028352916020019161086d565b820191906000526020600020905b81548152906001019060200180831161085057829003601f168201915b5050505050908060030160009054906101000a900473ffffffffffffffffffffffffffffffffffffffff16908060040160009054906101000a900473ffffffffffffffffffffffffffffffffffffffff16908060040160149054906101000a900460ff16908060050180546108e190611385565b80601f016020809104026020016040519081016040528092919081815260200182805461090d90611385565b801561095a5780601f1061092f5761010080835404028352916020019161095a565b820191906000526020600020905b81548152906001019060200180831161093d57829003601f168201915b5050505050905087565b600083511161097257600080fd5b600081511161098057600080fd5b60016000815480929190610993906113e8565b919050555060006040518060400160405280600d81526020017f73323767686462323634386e640000000000000000000000000000000000000081525090506040518060e0016040528060015481526020018281526020018581526020013373ffffffffffffffffffffffffffffffffffffffff1681526020018473ffffffffffffffffffffffffffffffffffffffff16815260200160011515815260200183815250600360006001548152602001908152602001600020600082015181600001556020820151816001019080519060200190610a71929190610d5e565b506040820151816002019080519060200190610a8e929190610d5e565b5060608201518160030160006101000a81548173ffffffffffffffffffffffffffffffffffffffff021916908373ffffffffffffffffffffffffffffffffffffffff16021790555060808201518160040160006101000a81548173ffffffffffffffffffffffffffffffffffffffff021916908373ffffffffffffffffffffffffffffffffffffffff16021790555060a08201518160040160146101000a81548160ff02191690831515021790555060c0820151816005019080519060200190610b59929190610d5e565b509050507fb948ead3e3ca0ce8eaf473d1a52d9f647fc6085d352dbae581d7a27c4d53463c81604051610b8c9190611155565b60405180910390a150505050565b60005481565b600080815480929190610bb2906113e8565b9190505550604051806080016040528060005481526020013373ffffffffffffffffffffffffffffffffffffffff1681526020018381526020018281525060026000805481526020019081526020016000206000820151816000015560208201518160010160006101000a81548173ffffffffffffffffffffffffffffffffffffffff021916908373ffffffffffffffffffffffffffffffffffffffff1602179055506040820151816002019080519060200190610c71929190610d5e565b506060820151816003019080519060200190610c8e929190610d5e565b509050505050565b6000806000806000600190505b6001548111610d505785604051602001610cbd91906110fe565b6040516020818303038152906040528051906020012060036000838152602001908152602001600020600101604051602001610cf99190611115565b604051602081830303815290604052805190602001201415610d3f576003600082815260200190815260200160002060040160149054906101000a900460ff1692508091505b80610d49906113e8565b9050610ca3565b508181935093505050915091565b828054610d6a90611385565b90600052602060002090601f016020900481019282610d8c5760008555610dd3565b82601f10610da557805160ff1916838001178555610dd3565b82800160010185558215610dd3579182015b82811115610dd2578251825591602001919060010190610db7565b5b509050610de09190610de4565b5090565b5b80821115610dfd576000816000905550600101610de5565b5090565b6000610e14610e0f8461128e565b611269565b905082815260208101848484011115610e2c57600080fd5b610e37848285611343565b509392505050565b600081359050610e4e816114cf565b92915050565b600082601f830112610e6557600080fd5b8135610e75848260208601610e01565b91505092915050565b600081359050610e8d816114e6565b92915050565b600060208284031215610ea557600080fd5b600082013567ffffffffffffffff811115610ebf57600080fd5b610ecb84828501610e54565b91505092915050565b600080600060608486031215610ee957600080fd5b600084013567ffffffffffffffff811115610f0357600080fd5b610f0f86828701610e54565b9350506020610f2086828701610e3f565b925050604084013567ffffffffffffffff811115610f3d57600080fd5b610f4986828701610e54565b9150509250925092565b60008060408385031215610f6657600080fd5b600083013567ffffffffffffffff811115610f8057600080fd5b610f8c85828601610e54565b925050602083013567ffffffffffffffff811115610fa957600080fd5b610fb585828601610e54565b9150509250929050565b600060208284031215610fd157600080fd5b6000610fdf84828501610e7e565b91505092915050565b610ff1816112fb565b82525050565b6110008161130d565b82525050565b6000611011826112d4565b61101b81856112df565b935061102b818560208601611352565b611034816114be565b840191505092915050565b600061104a826112d4565b61105481856112f0565b9350611064818560208601611352565b80840191505092915050565b6000815461107d81611385565b61108781866112f0565b945060018216600081146110a257600181146110b3576110e6565b60ff198316865281860193506110e6565b6110bc856112bf565b60005b838110156110de578154818901526001820191506020810190506110bf565b838801955050505b50505092915050565b6110f881611339565b82525050565b600061110a828461103f565b915081905092915050565b60006111218284611070565b915081905092915050565b60006040820190506111416000830185610ff7565b61114e60208301846110ef565b9392505050565b6000602082019050818103600083015261116f8184611006565b905092915050565b600060208201905061118c60008301846110ef565b92915050565b60006080820190506111a760008301876110ef565b6111b46020830186610fe8565b81810360408301526111c68185611006565b905081810360608301526111da8184611006565b905095945050505050565b600060e0820190506111fa600083018a6110ef565b818103602083015261120c8189611006565b905081810360408301526112208188611006565b905061122f6060830187610fe8565b61123c6080830186610fe8565b61124960a0830185610ff7565b81810360c083015261125b8184611006565b905098975050505050505050565b6000611273611284565b905061127f82826113b7565b919050565b6000604051905090565b600067ffffffffffffffff8211156112a9576112a861148f565b5b6112b2826114be565b9050602081019050919050565b60008190508160005260206000209050919050565b600081519050919050565b600082825260208201905092915050565b600081905092915050565b600061130682611319565b9050919050565b60008115159050919050565b600073ffffffffffffffffffffffffffffffffffffffff82169050919050565b6000819050919050565b82818337600083830152505050565b60005b83811015611370578082015181840152602081019050611355565b8381111561137f576000848401525b50505050565b6000600282049050600182168061139d57607f821691505b602082108114156113b1576113b0611460565b5b50919050565b6113c0826114be565b810181811067ffffffffffffffff821117156113df576113de61148f565b5b80604052505050565b60006113f382611339565b91507fffffffffffffffffffffffffffffffffffffffffffffffffffffffffffffffff82141561142657611425611431565b5b600182019050919050565b7f4e487b7100000000000000000000000000000000000000000000000000000000600052601160045260246000fd5b7f4e487b7100000000000000000000000000000000000000000000000000000000600052602260045260246000fd5b7f4e487b7100000000000000000000000000000000000000000000000000000000600052604160045260246000fd5b6000601f19601f8301169050919050565b6114d8816112fb565b81146114e357600080fd5b50565b6114ef81611339565b81146114fa57600080fd5b5056fea26469706673582212205871910817957a73221499b3ae38486efb8371f712c07bd90c1a92209e81dd8364736f6c63430008010033",
  "immutableReferences": {},
  "source": "pragma solidity >=0.5.0;\n\ncontract certisecure {\n\n    uint public uCount;\n    uint public cCount;\n    mapping(uint => User) public users;\n    mapping(uint => Certificate) public certificates;\n\n    struct User {\n        uint id;\n        address userAddress;\n        string name;\n        string userType;\n    }\n\n    struct Certificate {\n        uint id;\n        string uid;\n        string url;\n        address issuer;\n        address recipient;\n        bool isValid;\n        string desc;\n    }\n\n    event generatedCertificate(string uid);\n\n    function createUser(string memory _name, string memory _type) external {\n        uCount++;\n        users[uCount] = User(uCount, msg.sender, _name, _type);\n    }\n\n\n    function issueCertificate(string memory _url, address _recipient, string memory _desc) external {\n        require(bytes(_url).length > 0);\n        require(bytes(_desc).length > 0);\n\n        cCount++;\n        string memory uid = \"s27ghdb2648nd\";\n        certificates[cCount] = Certificate(cCount, uid, _url, msg.sender, _recipient, true, _desc);\n        emit generatedCertificate(uid);\n    }\n\n    function revokeCertificate(uint _id) external {\n        Certificate memory cert = certificates[_id];\n        require(cert.issuer == msg.sender);\n        cert.isValid = false;\n        certificates[_id] = cert;        \n    }\n\n    function verifyCertificate(string memory _uid) external view returns(bool, uint) {\n        bool valid = false;\n        uint id = 0;\n        for(uint i = 1; i <= cCount; ++i) {\n            if(keccak256(abi.encodePacked(certificates[i].uid)) == keccak256(abi.encodePacked(_uid))) {\n                valid = certificates[i].isValid;\n                id = i;\n            } \n        }\n        return (valid, id);\n    }\n}",
  "sourcePath": "/home/kc/Documents/code/dvki/src/contracts/certificate.sol",
  "compiler": {
    "name": "solc",
    "version": "0.8.1+commit.df193b15.Emscripten.clang"
  },
  "schemaVersion": "3.4.12",
  "updatedAt": "2023-02-18T03:05:44.392Z",
  "devdoc": {
    "kind": "dev",
    "methods": {},
    "version": 1
  },
  "userdoc": {
    "kind": "user",
    "methods": {},
    "version": 1
  }
}